{"abi":[{"type":"constructor","inputs":[{"name":"_orchestrator","type":"address","internalType":"address"}],"stateMutability":"nonpayable"},{"type":"function","name":"approve","inputs":[{"name":"to","type":"address","internalType":"address"},{"name":"tokenId","type":"uint256","internalType":"uint256"}],"outputs":[],"stateMutability":"nonpayable"},{"type":"function","name":"balanceOf","inputs":[{"name":"_owner","type":"address","internalType":"address"}],"outputs":[{"name":"","type":"uint256","internalType":"uint256"}],"stateMutability":"view"},{"type":"function","name":"deliberations","inputs":[{"name":"","type":"uint256","internalType":"uint256"}],"outputs":[{"name":"sessionId","type":"string","internalType":"string"},{"name":"prompt","type":"string","internalType":"string"},{"name":"planHash","type":"bytes32","internalType":"bytes32"},{"name":"evidenceHash","type":"bytes32","internalType":"bytes32"},{"name":"verdictHash","type":"bytes32","internalType":"bytes32"},{"name":"resultHash","type":"bytes32","internalType":"bytes32"},{"name":"computeProofHash","type":"bytes32","internalType":"bytes32"},{"name":"computeConfidence","type":"uint8","internalType":"uint8"},{"name":"verdictScore","type":"uint8","internalType":"uint8"},{"name":"timestamp","type":"uint256","internalType":"uint256"},{"name":"executed","type":"bool","internalType":"bool"}],"stateMutability":"view"},{"type":"function","name":"getDeliberation","inputs":[{"name":"tokenId","type":"uint256","internalType":"uint256"}],"outputs":[{"name":"","type":"tuple","internalType":"struct DeliberationINFT.DeliberationMetadata","components":[{"name":"sessionId","type":"string","internalType":"string"},{"name":"prompt","type":"string","internalType":"string"},{"name":"planHash","type":"bytes32","internalType":"bytes32"},{"name":"evidenceHash","type":"bytes32","internalType":"bytes32"},{"name":"verdictHash","type":"bytes32","internalType":"bytes32"},{"name":"resultHash","type":"bytes32","internalType":"bytes32"},{"name":"computeProofHash","type":"bytes32","internalType":"bytes32"},{"name":"computeConfidence","type":"uint8","internalType":"uint8"},{"name":"verdictScore","type":"uint8","internalType":"uint8"},{"name":"timestamp","type":"uint256","internalType":"uint256"},{"name":"executed","type":"bool","internalType":"bool"}]}],"stateMutability":"view"},{"type":"function","name":"mint","inputs":[{"name":"sessionId","type":"string","internalType":"string"},{"name":"prompt","type":"string","internalType":"string"},{"name":"planHash","type":"bytes32","internalType":"bytes32"},{"name":"evidenceHash","type":"bytes32","internalType":"bytes32"},{"name":"verdictHash","type":"bytes32","internalType":"bytes32"},{"name":"resultHash","type":"bytes32","internalType":"bytes32"},{"name":"computeProofHash","type":"bytes32","internalType":"bytes32"},{"name":"computeConfidence","type":"uint8","internalType":"uint8"},{"name":"verdictScore","type":"uint8","internalType":"uint8"},{"name":"metadataURI","type":"string","internalType":"string"}],"outputs":[{"name":"","type":"uint256","internalType":"uint256"}],"stateMutability":"nonpayable"},{"type":"function","name":"name","inputs":[],"outputs":[{"name":"","type":"string","internalType":"string"}],"stateMutability":"view"},{"type":"function","name":"orchestrator","inputs":[],"outputs":[{"name":"","type":"address","internalType":"address"}],"stateMutability":"view"},{"type":"function","name":"owner","inputs":[],"outputs":[{"name":"","type":"address","internalType":"address"}],"stateMutability":"view"},{"type":"function","name":"ownerOf","inputs":[{"name":"tokenId","type":"uint256","internalType":"uint256"}],"outputs":[{"name":"","type":"address","internalType":"address"}],"stateMutability":"view"},{"type":"function","name":"recordExecution","inputs":[{"name":"tokenId","type":"uint256","internalType":"uint256"},{"name":"transactionHash","type":"string","internalType":"string"},{"name":"gasUsed","type":"uint256","internalType":"uint256"},{"name":"costUsd","type":"uint256","internalType":"uint256"}],"outputs":[],"stateMutability":"nonpayable"},{"type":"function","name":"setApprovalForAll","inputs":[{"name":"operator","type":"address","internalType":"address"},{"name":"approved","type":"bool","internalType":"bool"}],"outputs":[],"stateMutability":"nonpayable"},{"type":"function","name":"setOrchestrator","inputs":[{"name":"_orchestrator","type":"address","internalType":"address"}],"outputs":[],"stateMutability":"nonpayable"},{"type":"function","name":"symbol","inputs":[],"outputs":[{"name":"","type":"string","internalType":"string"}],"stateMutability":"view"},{"type":"function","name":"tokenURI","inputs":[{"name":"tokenId","type":"uint256","internalType":"uint256"}],"outputs":[{"name":"","type":"string","internalType":"string"}],"stateMutability":"view"},{"type":"function","name":"totalSupply","inputs":[],"outputs":[{"name":"","type":"uint256","internalType":"uint256"}],"stateMutability":"view"},{"type":"function","name":"transferFrom","inputs":[{"name":"from","type":"address","internalType":"address"},{"name":"to","type":"address","internalType":"address"},{"name":"tokenId","type":"uint256","internalType":"uint256"}],"outputs":[],"stateMutability":"nonpayable"},{"type":"function","name":"verifyComputeProof","inputs":[{"name":"tokenId","type":"uint256","internalType":"uint256"},{"name":"proofHash","type":"bytes32","internalType":"bytes32"},{"name":"confidence","type":"uint8","internalType":"uint8"}],"outputs":[],"stateMutability":"nonpayable"},{"type":"event","name":"Approval","inputs":[{"name":"owner","type":"address","indexed":true,"internalType":"address"},{"name":"approved","type":"address","indexed":true,"internalType":"address"},{"name":"tokenId","type":"uint256","indexed":true,"internalType":"uint256"}],"anonymous":false},{"type":"event","name":"ApprovalForAll","inputs":[{"name":"owner","type":"address","indexed":true,"internalType":"address"},{"name":"operator","type":"address","indexed":true,"internalType":"address"},{"name":"approved","type":"bool","indexed":false,"internalType":"bool"}],"anonymous":false},{"type":"event","name":"ComputeProofVerified","inputs":[{"name":"tokenId","type":"uint256","indexed":true,"internalType":"uint256"},{"name":"proofHash","type":"bytes32","indexed":false,"internalType":"bytes32"},{"name":"confidence","type":"uint8","indexed":false,"internalType":"uint8"}],"anonymous":false},{"type":"event","name":"DeliberationMinted","inputs":[{"name":"tokenId","type":"uint256","indexed":true,"internalType":"uint256"},{"name":"sessionId","type":"string","indexed":true,"internalType":"string"},{"name":"minter","type":"address","indexed":true,"internalType":"address"},{"name":"computeConfidence","type":"uint8","indexed":false,"internalType":"uint8"},{"name":"verdictScore","type":"uint8","indexed":false,"internalType":"uint8"}],"anonymous":false},{"type":"event","name":"ExecutionRecorded","inputs":[{"name":"tokenId","type":"uint256","indexed":true,"internalType":"uint256"},{"name":"transactionHash","type":"string","indexed":false,"internalType":"string"},{"name":"gasUsed","type":"uint256","indexed":false,"internalType":"uint256"},{"name":"costUsd","type":"uint256","indexed":false,"internalType":"uint256"}],"anonymous":false},{"type":"event","name":"Transfer","inputs":[{"name":"from","type":"address","indexed":true,"internalType":"address"},{"name":"to","type":"address","indexed":true,"internalType":"address"},{"name":"tokenId","type":"uint256","indexed":true,"internalType":"uint256"}],"anonymous":false}],"bytecode":{"object":"0x60806040526040518060400160405280601181526020017f44656c696265726174696f6e20694e46540000000000000000000000000000008152505f9081620000499190620003b3565b506040518060400160405280600581526020017f49444c494200000000000000000000000000000000000000000000000000000081525060019081620000909190620003b3565b506001600255348015620000a2575f80fd5b506040516200327f3803806200327f8339818101604052810190620000c89190620004fc565b3360035f6101000a81548173ffffffffffffffffffffffffffffffffffffffff021916908373ffffffffffffffffffffffffffffffffffffffff1602179055508060045f6101000a81548173ffffffffffffffffffffffffffffffffffffffff021916908373ffffffffffffffffffffffffffffffffffffffff160217905550506200052c565b5f81519050919050565b7f4e487b71000000000000000000000000000000000000000000000000000000005f52604160045260245ffd5b7f4e487b71000000000000000000000000000000000000000000000000000000005f52602260045260245ffd5b5f6002820490506001821680620001cb57607f821691505b602082108103620001e157620001e062000186565b5b50919050565b5f819050815f5260205f209050919050565b5f6020601f8301049050919050565b5f82821b905092915050565b5f60088302620002457fffffffffffffffffffffffffffffffffffffffffffffffffffffffffffffffff8262000208565b62000251868362000208565b95508019841693508086168417925050509392505050565b5f819050919050565b5f819050919050565b5f6200029b620002956200028f8462000269565b62000272565b62000269565b9050919050565b5f819050919050565b620002b6836200027b565b620002ce620002c582620002a2565b84845462000214565b825550505050565b5f90565b620002e4620002d6565b620002f1818484620002ab565b505050565b5b8181101562000318576200030c5f82620002da565b600181019050620002f7565b5050565b601f82111562000367576200033181620001e7565b6200033c84620001f9565b810160208510156200034c578190505b620003646200035b85620001f9565b830182620002f6565b50505b505050565b5f82821c905092915050565b5f620003895f19846008026200036c565b1980831691505092915050565b5f620003a3838362000378565b9150826002028217905092915050565b620003be826200014f565b67ffffffffffffffff811115620003da57620003d962000159565b5b620003e68254620001b3565b620003f38282856200031c565b5f60209050601f83116001811462000429575f841562000414578287015190505b62000420858262000396565b8655506200048f565b601f1984166200043986620001e7565b5f5b8281101562000462578489015182556001820191506020850194506020810190506200043b565b868310156200048257848901516200047e601f89168262000378565b8355505b6001600288020188555050505b505050505050565b5f80fd5b5f73ffffffffffffffffffffffffffffffffffffffff82169050919050565b5f620004c6826200049b565b9050919050565b620004d881620004ba565b8114620004e3575f80fd5b50565b5f81519050620004f681620004cd565b92915050565b5f6020828403121562000514576200051362000497565b5b5f6200052384828501620004e6565b91505092915050565b612d45806200053a5f395ff3fe608060405234801561000f575f80fd5b5060043610610109575f3560e01c80638da5cb5b116100a0578063c87b56dd1161006f578063c87b56dd146102a3578063ccc164fc146102d3578063cd28ef0d14610303578063cf9533011461031f578063f235f1a01461035957610109565b80638da5cb5b1461022d57806395d89b411461024b578063a22cb46514610269578063b74795d91461028557610109565b806323b872dd116100dc57806323b872dd146101815780636352211e1461019d57806370a08231146101cd578063885dd10b146101fd57610109565b806306fdde031461010d578063095ea7b31461012b57806318160ddd1461014757806321725e1414610165575b5f80fd5b610115610375565b6040516101229190611c03565b60405180910390f35b61014560048036038101906101409190611cc1565b610400565b005b61014f6105dd565b60405161015c9190611d0e565b60405180910390f35b61017f600480360381019061017a9190611d90565b6105f2565b005b61019b60048036038101906101969190611de0565b6107f8565b005b6101b760048036038101906101b29190611e30565b610bea565b6040516101c49190611e6a565b60405180910390f35b6101e760048036038101906101e29190611e83565b610c96565b6040516101f49190611d0e565b60405180910390f35b61021760048036038101906102129190611fda565b610d4a565b6040516102249190611d0e565b60405180910390f35b61023561112a565b6040516102429190611e6a565b60405180910390f35b61025361114f565b6040516102609190611c03565b60405180910390f35b610283600480360381019061027e919061213c565b6111db565b005b61028d6112d3565b60405161029a9190611e6a565b60405180910390f35b6102bd60048036038101906102b89190611e30565b6112f8565b6040516102ca9190611c03565b60405180910390f35b6102ed60048036038101906102e89190611e30565b611437565b6040516102fa91906122f1565b60405180910390f35b61031d60048036038101906103189190611e83565b6116af565b005b61033960048036038101906103349190611e30565b6117ef565b6040516103509b9a9998979695949392919061233e565b60405180910390f35b610373600480360381019061036e91906123f5565b611976565b005b5f8054610381906124a2565b80601f01602080910402602001604051908101604052809291908181526020018280546103ad906124a2565b80156103f85780601f106103cf576101008083540402835291602001916103f8565b820191905f5260205f20905b8154815290600101906020018083116103db57829003601f168201915b505050505081565b5f60065f8381526020019081526020015f205f9054906101000a900473ffffffffffffffffffffffffffffffffffffffff1690508073ffffffffffffffffffffffffffffffffffffffff163373ffffffffffffffffffffffffffffffffffffffff1614806104ef575060095f8273ffffffffffffffffffffffffffffffffffffffff1673ffffffffffffffffffffffffffffffffffffffff1681526020019081526020015f205f3373ffffffffffffffffffffffffffffffffffffffff1673ffffffffffffffffffffffffffffffffffffffff1681526020019081526020015f205f9054906101000a900460ff165b61052e576040517f08c379a00000000000000000000000000000000000000000000000000000000081526004016105259061251c565b60405180910390fd5b8260085f8481526020019081526020015f205f6101000a81548173ffffffffffffffffffffffffffffffffffffffff021916908373ffffffffffffffffffffffffffffffffffffffff160217905550818373ffffffffffffffffffffffffffffffffffffffff168273ffffffffffffffffffffffffffffffffffffffff167f8c5be1e5ebec7d5bd14f71427d1e84f3dd0314c0f7b2291e5b200ac8c7c3b92560405160405180910390a4505050565b5f60016002546105ed9190612567565b905090565b60045f9054906101000a900473ffffffffffffffffffffffffffffffffffffffff1673ffffffffffffffffffffffffffffffffffffffff163373ffffffffffffffffffffffffffffffffffffffff1614610681576040517f08c379a0000000000000000000000000000000000000000000000000000000008152600401610678906125e4565b60405180910390fd5b5f73ffffffffffffffffffffffffffffffffffffffff1660065f8581526020019081526020015f205f9054906101000a900473ffffffffffffffffffffffffffffffffffffffff1673ffffffffffffffffffffffffffffffffffffffff160361071f576040517f08c379a00000000000000000000000000000000000000000000000000000000081526004016107169061264c565b60405180910390fd5b5f8160ff16118015610735575060648160ff1611155b610774576040517f08c379a000000000000000000000000000000000000000000000000000000000815260040161076b906126b4565b60405180910390fd5b81600a5f8581526020019081526020015f206006018190555080600a5f8581526020019081526020015f206007015f6101000a81548160ff021916908360ff160217905550827f91c1a8b29d40a1c916d343b45fc102ae1dd16ba80286109db6c1b57bd10d9e9983836040516107eb9291906126d2565b60405180910390a2505050565b60065f8281526020019081526020015f205f9054906101000a900473ffffffffffffffffffffffffffffffffffffffff1673ffffffffffffffffffffffffffffffffffffffff168373ffffffffffffffffffffffffffffffffffffffff1614610896576040517f08c379a000000000000000000000000000000000000000000000000000000000815260040161088d90612743565b60405180910390fd5b8273ffffffffffffffffffffffffffffffffffffffff163373ffffffffffffffffffffffffffffffffffffffff16148061092b575060085f8281526020019081526020015f205f9054906101000a900473ffffffffffffffffffffffffffffffffffffffff1673ffffffffffffffffffffffffffffffffffffffff163373ffffffffffffffffffffffffffffffffffffffff16145b806109b7575060095f8473ffffffffffffffffffffffffffffffffffffffff1673ffffffffffffffffffffffffffffffffffffffff1681526020019081526020015f205f3373ffffffffffffffffffffffffffffffffffffffff1673ffffffffffffffffffffffffffffffffffffffff1681526020019081526020015f205f9054906101000a900460ff165b6109f6576040517f08c379a00000000000000000000000000000000000000000000000000000000081526004016109ed9061251c565b60405180910390fd5b5f73ffffffffffffffffffffffffffffffffffffffff168273ffffffffffffffffffffffffffffffffffffffff1603610a64576040517f08c379a0000000000000000000000000000000000000000000000000000000008152600401610a5b906127ab565b60405180910390fd5b60075f8473ffffffffffffffffffffffffffffffffffffffff1673ffffffffffffffffffffffffffffffffffffffff1681526020019081526020015f205f815480929190610ab1906127c9565b919050555060075f8373ffffffffffffffffffffffffffffffffffffffff1673ffffffffffffffffffffffffffffffffffffffff1681526020019081526020015f205f815480929190610b03906127f0565b91905055508160065f8381526020019081526020015f205f6101000a81548173ffffffffffffffffffffffffffffffffffffffff021916908373ffffffffffffffffffffffffffffffffffffffff16021790555060085f8281526020019081526020015f205f6101000a81549073ffffffffffffffffffffffffffffffffffffffff0219169055808273ffffffffffffffffffffffffffffffffffffffff168473ffffffffffffffffffffffffffffffffffffffff167fddf252ad1be2c89b69c2b068fc378daa952ba7f163c4a11628f55a4df523b3ef60405160405180910390a4505050565b5f8060065f8481526020019081526020015f205f9054906101000a900473ffffffffffffffffffffffffffffffffffffffff1690505f73ffffffffffffffffffffffffffffffffffffffff168173ffffffffffffffffffffffffffffffffffffffff1603610c8d576040517f08c379a0000000000000000000000000000000000000000000000000000000008152600401610c849061264c565b60405180910390fd5b80915050919050565b5f8073ffffffffffffffffffffffffffffffffffffffff168273ffffffffffffffffffffffffffffffffffffffff1603610d05576040517f08c379a0000000000000000000000000000000000000000000000000000000008152600401610cfc90612881565b60405180910390fd5b60075f8373ffffffffffffffffffffffffffffffffffffffff1673ffffffffffffffffffffffffffffffffffffffff1681526020019081526020015f20549050919050565b5f60045f9054906101000a900473ffffffffffffffffffffffffffffffffffffffff1673ffffffffffffffffffffffffffffffffffffffff163373ffffffffffffffffffffffffffffffffffffffff1614610dda576040517f08c379a0000000000000000000000000000000000000000000000000000000008152600401610dd1906125e4565b60405180910390fd5b5f8460ff1611610e1f576040517f08c379a0000000000000000000000000000000000000000000000000000000008152600401610e16906126b4565b60405180910390fd5b5f8360ff1611610e64576040517f08c379a0000000000000000000000000000000000000000000000000000000008152600401610e5b906128e9565b60405180910390fd5b5f8b5111610ea7576040517f08c379a0000000000000000000000000000000000000000000000000000000008152600401610e9e90612951565b60405180910390fd5b5f60025f815480929190610eba906127f0565b9190505590503360065f8381526020019081526020015f205f6101000a81548173ffffffffffffffffffffffffffffffffffffffff021916908373ffffffffffffffffffffffffffffffffffffffff16021790555060075f3373ffffffffffffffffffffffffffffffffffffffff1673ffffffffffffffffffffffffffffffffffffffff1681526020019081526020015f205f815480929190610f5c906127f0565b91905055508260055f8381526020019081526020015f209081610f7f9190612b0c565b506040518061016001604052808d81526020018c81526020018b81526020018a81526020018981526020018881526020018781526020018660ff1681526020018560ff1681526020014281526020015f1515815250600a5f8381526020019081526020015f205f820151815f019081610ff89190612b0c565b50602082015181600101908161100e9190612b0c565b5060408201518160020155606082015181600301556080820151816004015560a0820151816005015560c0820151816006015560e0820151816007015f6101000a81548160ff021916908360ff1602179055506101008201518160070160016101000a81548160ff021916908360ff1602179055506101208201518160080155610140820151816009015f6101000a81548160ff0219169083151502179055509050503373ffffffffffffffffffffffffffffffffffffffff168c6040516110d69190612c15565b6040518091039020827f3ead9f9697fb50f8e1c7ccaa83ab2fecc734d689a4c8062e2ce5d24e93229b4a8888604051611110929190612c2b565b60405180910390a4809150509a9950505050505050505050565b60035f9054906101000a900473ffffffffffffffffffffffffffffffffffffffff1681565b6001805461115c906124a2565b80601f0160208091040260200160405190810160405280929190818152602001828054611188906124a2565b80156111d35780601f106111aa576101008083540402835291602001916111d3565b820191905f5260205f20905b8154815290600101906020018083116111b657829003601f168201915b505050505081565b8060095f3373ffffffffffffffffffffffffffffffffffffffff1673ffffffffffffffffffffffffffffffffffffffff1681526020019081526020015f205f8473ffffffffffffffffffffffffffffffffffffffff1673ffffffffffffffffffffffffffffffffffffffff1681526020019081526020015f205f6101000a81548160ff0219169083151502179055508173ffffffffffffffffffffffffffffffffffffffff163373ffffffffffffffffffffffffffffffffffffffff167f17307eab39ab6107e8899845ad3d59bd9653f200f220920489ca2b5937696c31836040516112c79190612c52565b60405180910390a35050565b60045f9054906101000a900473ffffffffffffffffffffffffffffffffffffffff1681565b60605f73ffffffffffffffffffffffffffffffffffffffff1660065f8481526020019081526020015f205f9054906101000a900473ffffffffffffffffffffffffffffffffffffffff1673ffffffffffffffffffffffffffffffffffffffff1603611398576040517f08c379a000000000000000000000000000000000000000000000000000000000815260040161138f9061264c565b60405180910390fd5b60055f8381526020019081526020015f2080546113b4906124a2565b80601f01602080910402602001604051908101604052809291908181526020018280546113e0906124a2565b801561142b5780601f106114025761010080835404028352916020019161142b565b820191905f5260205f20905b81548152906001019060200180831161140e57829003601f168201915b50505050509050919050565b61143f611b11565b5f73ffffffffffffffffffffffffffffffffffffffff1660065f8481526020019081526020015f205f9054906101000a900473ffffffffffffffffffffffffffffffffffffffff1673ffffffffffffffffffffffffffffffffffffffff16036114dd576040517f08c379a00000000000000000000000000000000000000000000000000000000081526004016114d49061264c565b60405180910390fd5b600a5f8381526020019081526020015f20604051806101600160405290815f82018054611509906124a2565b80601f0160208091040260200160405190810160405280929190818152602001828054611535906124a2565b80156115805780601f1061155757610100808354040283529160200191611580565b820191905f5260205f20905b81548152906001019060200180831161156357829003601f168201915b50505050508152602001600182018054611599906124a2565b80601f01602080910402602001604051908101604052809291908181526020018280546115c5906124a2565b80156116105780601f106115e757610100808354040283529160200191611610565b820191905f5260205f20905b8154815290600101906020018083116115f357829003601f168201915b505050505081526020016002820154815260200160038201548152602001600482015481526020016005820154815260200160068201548152602001600782015f9054906101000a900460ff1660ff1660ff1681526020016007820160019054906101000a900460ff1660ff1660ff16815260200160088201548152602001600982015f9054906101000a900460ff1615151515815250509050919050565b60035f9054906101000a900473ffffffffffffffffffffffffffffffffffffffff1673ffffffffffffffffffffffffffffffffffffffff163373ffffffffffffffffffffffffffffffffffffffff161461173e576040517f08c379a000000000000000000000000000000000000000000000000000000000815260040161173590612cb5565b60405180910390fd5b5f73ffffffffffffffffffffffffffffffffffffffff168173ffffffffffffffffffffffffffffffffffffffff16036117ac576040517f08c379a00000000000000000000000000000000000000000000000000000000081526004016117a390612881565b60405180910390fd5b8060045f6101000a81548173ffffffffffffffffffffffffffffffffffffffff021916908373ffffffffffffffffffffffffffffffffffffffff16021790555050565b600a602052805f5260405f205f91509050805f01805461180e906124a2565b80601f016020809104026020016040519081016040528092919081815260200182805461183a906124a2565b80156118855780601f1061185c57610100808354040283529160200191611885565b820191905f5260205f20905b81548152906001019060200180831161186857829003601f168201915b50505050509080600101805461189a906124a2565b80601f01602080910402602001604051908101604052809291908181526020018280546118c6906124a2565b80156119115780601f106118e857610100808354040283529160200191611911565b820191905f5260205f20905b8154815290600101906020018083116118f457829003601f168201915b505050505090806002015490806003015490806004015490806005015490806006015490806007015f9054906101000a900460ff16908060070160019054906101000a900460ff1690806008015490806009015f9054906101000a900460ff1690508b565b60045f9054906101000a900473ffffffffffffffffffffffffffffffffffffffff1673ffffffffffffffffffffffffffffffffffffffff163373ffffffffffffffffffffffffffffffffffffffff1614611a05576040517f08c379a00000000000000000000000000000000000000000000000000000000081526004016119fc906125e4565b60405180910390fd5b5f73ffffffffffffffffffffffffffffffffffffffff1660065f8681526020019081526020015f205f9054906101000a900473ffffffffffffffffffffffffffffffffffffffff1673ffffffffffffffffffffffffffffffffffffffff1603611aa3576040517f08c379a0000000000000000000000000000000000000000000000000000000008152600401611a9a9061264c565b60405180910390fd5b6001600a5f8681526020019081526020015f206009015f6101000a81548160ff021916908315150217905550837f6f74928693e5955cb844dd0637b085f8a07b0166458a27f7013dbe6308a09b14848484604051611b0393929190612cd3565b60405180910390a250505050565b60405180610160016040528060608152602001606081526020015f80191681526020015f80191681526020015f80191681526020015f80191681526020015f80191681526020015f60ff1681526020015f60ff1681526020015f81526020015f151581525090565b5f81519050919050565b5f82825260208201905092915050565b5f5b83811015611bb0578082015181840152602081019050611b95565b5f8484015250505050565b5f601f19601f8301169050919050565b5f611bd582611b79565b611bdf8185611b83565b9350611bef818560208601611b93565b611bf881611bbb565b840191505092915050565b5f6020820190508181035f830152611c1b8184611bcb565b905092915050565b5f604051905090565b5f80fd5b5f80fd5b5f73ffffffffffffffffffffffffffffffffffffffff82169050919050565b5f611c5d82611c34565b9050919050565b611c6d81611c53565b8114611c77575f80fd5b50565b5f81359050611c8881611c64565b92915050565b5f819050919050565b611ca081611c8e565b8114611caa575f80fd5b50565b5f81359050611cbb81611c97565b92915050565b5f8060408385031215611cd757611cd6611c2c565b5b5f611ce485828601611c7a565b9250506020611cf585828601611cad565b9150509250929050565b611d0881611c8e565b82525050565b5f602082019050611d215f830184611cff565b92915050565b5f819050919050565b611d3981611d27565b8114611d43575f80fd5b50565b5f81359050611d5481611d30565b92915050565b5f60ff82169050919050565b611d6f81611d5a565b8114611d79575f80fd5b50565b5f81359050611d8a81611d66565b92915050565b5f805f60608486031215611da757611da6611c2c565b5b5f611db486828701611cad565b9350506020611dc586828701611d46565b9250506040611dd686828701611d7c565b9150509250925092565b5f805f60608486031215611df757611df6611c2c565b5b5f611e0486828701611c7a565b9350506020611e1586828701611c7a565b9250506040611e2686828701611cad565b9150509250925092565b5f60208284031215611e4557611e44611c2c565b5b5f611e5284828501611cad565b91505092915050565b611e6481611c53565b82525050565b5f602082019050611e7d5f830184611e5b565b92915050565b5f60208284031215611e9857611e97611c2c565b5b5f611ea584828501611c7a565b91505092915050565b5f80fd5b5f80fd5b7f4e487b71000000000000000000000000000000000000000000000000000000005f52604160045260245ffd5b611eec82611bbb565b810181811067ffffffffffffffff82111715611f0b57611f0a611eb6565b5b80604052505050565b5f611f1d611c23565b9050611f298282611ee3565b919050565b5f67ffffffffffffffff821115611f4857611f47611eb6565b5b611f5182611bbb565b9050602081019050919050565b828183375f83830152505050565b5f611f7e611f7984611f2e565b611f14565b905082815260208101848484011115611f9a57611f99611eb2565b5b611fa5848285611f5e565b509392505050565b5f82601f830112611fc157611fc0611eae565b5b8135611fd1848260208601611f6c565b91505092915050565b5f805f805f805f805f806101408b8d031215611ff957611ff8611c2c565b5b5f8b013567ffffffffffffffff81111561201657612015611c30565b5b6120228d828e01611fad565b9a505060208b013567ffffffffffffffff81111561204357612042611c30565b5b61204f8d828e01611fad565b99505060406120608d828e01611d46565b98505060606120718d828e01611d46565b97505060806120828d828e01611d46565b96505060a06120938d828e01611d46565b95505060c06120a48d828e01611d46565b94505060e06120b58d828e01611d7c565b9350506101006120c78d828e01611d7c565b9250506101208b013567ffffffffffffffff8111156120e9576120e8611c30565b5b6120f58d828e01611fad565b9150509295989b9194979a5092959850565b5f8115159050919050565b61211b81612107565b8114612125575f80fd5b50565b5f8135905061213681612112565b92915050565b5f806040838503121561215257612151611c2c565b5b5f61215f85828601611c7a565b925050602061217085828601612128565b9150509250929050565b5f82825260208201905092915050565b5f61219482611b79565b61219e818561217a565b93506121ae818560208601611b93565b6121b781611bbb565b840191505092915050565b6121cb81611d27565b82525050565b6121da81611d5a565b82525050565b6121e981611c8e565b82525050565b6121f881612107565b82525050565b5f61016083015f8301518482035f860152612219828261218a565b91505060208301518482036020860152612233828261218a565b915050604083015161224860408601826121c2565b50606083015161225b60608601826121c2565b50608083015161226e60808601826121c2565b5060a083015161228160a08601826121c2565b5060c083015161229460c08601826121c2565b5060e08301516122a760e08601826121d1565b506101008301516122bc6101008601826121d1565b506101208301516122d16101208601826121e0565b506101408301516122e66101408601826121ef565b508091505092915050565b5f6020820190508181035f83015261230981846121fe565b905092915050565b61231a81611d27565b82525050565b61232981611d5a565b82525050565b61233881612107565b82525050565b5f610160820190508181035f830152612357818e611bcb565b9050818103602083015261236b818d611bcb565b905061237a604083018c612311565b612387606083018b612311565b612394608083018a612311565b6123a160a0830189612311565b6123ae60c0830188612311565b6123bb60e0830187612320565b6123c9610100830186612320565b6123d7610120830185611cff565b6123e561014083018461232f565b9c9b505050505050505050505050565b5f805f806080858703121561240d5761240c611c2c565b5b5f61241a87828801611cad565b945050602085013567ffffffffffffffff81111561243b5761243a611c30565b5b61244787828801611fad565b935050604061245887828801611cad565b925050606061246987828801611cad565b91505092959194509250565b7f4e487b71000000000000000000000000000000000000000000000000000000005f52602260045260245ffd5b5f60028204905060018216806124b957607f821691505b6020821081036124cc576124cb612475565b5b50919050565b7f4e6f7420617070726f76656400000000000000000000000000000000000000005f82015250565b5f612506600c83611b83565b9150612511826124d2565b602082019050919050565b5f6020820190508181035f830152612533816124fa565b9050919050565b7f4e487b71000000000000000000000000000000000000000000000000000000005f52601160045260245ffd5b5f61257182611c8e565b915061257c83611c8e565b92508282039050818111156125945761259361253a565b5b92915050565b7f4f6e6c79206f7263686573747261746f720000000000000000000000000000005f82015250565b5f6125ce601183611b83565b91506125d98261259a565b602082019050919050565b5f6020820190508181035f8301526125fb816125c2565b9050919050565b7f546f6b656e20646f65736e2774206578697374000000000000000000000000005f82015250565b5f612636601383611b83565b915061264182612602565b602082019050919050565b5f6020820190508181035f8301526126638161262a565b9050919050565b7f496e76616c696420636f6e666964656e636500000000000000000000000000005f82015250565b5f61269e601283611b83565b91506126a98261266a565b602082019050919050565b5f6020820190508181035f8301526126cb81612692565b9050919050565b5f6040820190506126e55f830185612311565b6126f26020830184612320565b9392505050565b7f4e6f74206f776e657200000000000000000000000000000000000000000000005f82015250565b5f61272d600983611b83565b9150612738826126f9565b602082019050919050565b5f6020820190508181035f83015261275a81612721565b9050919050565b7f496e76616c696420726563697069656e740000000000000000000000000000005f82015250565b5f612795601183611b83565b91506127a082612761565b602082019050919050565b5f6020820190508181035f8301526127c281612789565b9050919050565b5f6127d382611c8e565b91505f82036127e5576127e461253a565b5b600182039050919050565b5f6127fa82611c8e565b91507fffffffffffffffffffffffffffffffffffffffffffffffffffffffffffffffff820361282c5761282b61253a565b5b600182019050919050565b7f496e76616c6964206164647265737300000000000000000000000000000000005f82015250565b5f61286b600f83611b83565b915061287682612837565b602082019050919050565b5f6020820190508181035f8301526128988161285f565b9050919050565b7f496e76616c69642073636f7265000000000000000000000000000000000000005f82015250565b5f6128d3600d83611b83565b91506128de8261289f565b602082019050919050565b5f6020820190508181035f830152612900816128c7565b9050919050565b7f496e76616c69642073657373696f6e20494400000000000000000000000000005f82015250565b5f61293b601283611b83565b915061294682612907565b602082019050919050565b5f6020820190508181035f8301526129688161292f565b9050919050565b5f819050815f5260205f209050919050565b5f6020601f8301049050919050565b5f82821b905092915050565b5f600883026129cb7fffffffffffffffffffffffffffffffffffffffffffffffffffffffffffffffff82612990565b6129d58683612990565b95508019841693508086168417925050509392505050565b5f819050919050565b5f612a10612a0b612a0684611c8e565b6129ed565b611c8e565b9050919050565b5f819050919050565b612a29836129f6565b612a3d612a3582612a17565b84845461299c565b825550505050565b5f90565b612a51612a45565b612a5c818484612a20565b505050565b5b81811015612a7f57612a745f82612a49565b600181019050612a62565b5050565b601f821115612ac457612a958161296f565b612a9e84612981565b81016020851015612aad578190505b612ac1612ab985612981565b830182612a61565b50505b505050565b5f82821c905092915050565b5f612ae45f1984600802612ac9565b1980831691505092915050565b5f612afc8383612ad5565b9150826002028217905092915050565b612b1582611b79565b67ffffffffffffffff811115612b2e57612b2d611eb6565b5b612b3882546124a2565b612b43828285612a83565b5f60209050601f831160018114612b74575f8415612b62578287015190505b612b6c8582612af1565b865550612bd3565b601f198416612b828661296f565b5f5b82811015612ba957848901518255600182019150602085019450602081019050612b84565b86831015612bc65784890151612bc2601f891682612ad5565b8355505b6001600288020188555050505b505050505050565b5f81905092915050565b5f612bef82611b79565b612bf98185612bdb565b9350612c09818560208601611b93565b80840191505092915050565b5f612c208284612be5565b915081905092915050565b5f604082019050612c3e5f830185612320565b612c4b6020830184612320565b9392505050565b5f602082019050612c655f83018461232f565b92915050565b7f4f6e6c79206f776e6572000000000000000000000000000000000000000000005f82015250565b5f612c9f600a83611b83565b9150612caa82612c6b565b602082019050919050565b5f6020820190508181035f830152612ccc81612c93565b9050919050565b5f6060820190508181035f830152612ceb8186611bcb565b9050612cfa6020830185611cff565b612d076040830184611cff565b94935050505056fea2646970667358221220b0123a660bc4190ba7b70c316c6c1eb30ec37edfe3bcc5b685072067d750dd9664736f6c63430008150033","linkReferences":{}},"methodIdentifiers":{"approve(address,uint256)":"095ea7b3","balanceOf(address)":"70a08231","deliberations(uint256)":"cf953301","getDeliberation(uint256)":"ccc164fc","mint(string,string,bytes32,bytes32,bytes32,bytes32,bytes32,uint8,uint8,string)":"885dd10b","name()":"06fdde03","orchestrator()":"b74795d9","owner()":"8da5cb5b","ownerOf(uint256)":"6352211e","recordExecution(uint256,string,uint256,uint256)":"f235f1a0","setApprovalForAll(address,bool)":"a22cb465","setOrchestrator(address)":"cd28ef0d","symbol()":"95d89b41","tokenURI(uint256)":"c87b56dd","totalSupply()":"18160ddd","transferFrom(address,address,uint256)":"23b872dd","verifyComputeProof(uint256,bytes32,uint8)":"21725e14"},"id":1}